:020000040800F2
:10000000001000207D0500087B0500087905000828
:1000100000000000000000000000000000000000E0
:100020000000000000000000000000007B05000848
:1000300000000000000000007B0500087B050008B0
:100040007905000879050008790500087905000898
:100050007905000879050008790500087905000888
:100060007905000879050008790500087905000878
:100070007905000879050008790500087905000868
:100080007905000879050008790500087905000858
:100090007905000879050008790500087905000848
:1000A0007905000879050008790500087905000838
:1000B0007905000879050008790500087905000828
:1000C00003221D4B1A6088221C4B52011A608022A9
:1000D0001B4B12011A601B4B1B4A1A601B4B1C4A1C
:1000E0001A6080221B4B520419680A431A6080224E
:1000F000920419681142FCD00222174B1A60802327
:10010000164A9B0211680B4313608023144A5B005C
:1001100011680B4313608023124A5B0511680B437F
:1001200010211360104A13680C3A0B43D360136814
:100130008B4313607047C0463410024038100240B1
:100140004010024000200240020304000C10024054
:100150000208003000100240081002403C1002402B
:1001600020000050240000500C00005008220B4BCF
:1001700001211A600A4B0B4A1A600D220A4B1A60C1
:100180000A4B0B4A1A600B4B0B4A1A6004220B4BAA
:100190001A600B4A116005221A607047084400403B
:1001A0000C4400408306000000440040282C01401D
:1001B000FF1800002C2C014087130000002C014088
:1001C000142C014002220123F0B585B00291144C99
:1001D00014495242019020260B600627226000221B
:1001E000039102998A4219DA0F4D02E021681942FF
:1001F0000AD12968080030403142F7D028683842D7
:1002000004D00020094B1F6005B0F0BD08480199DB
:1002100000688854039901320B60E2E70120F3E79C
:10022000102C0140142C01401C440040204400408C
:10023000244400400923F0B50A4C802523600023A4
:10024000094A0A4E8B4206DB402311681942FCD052
:100250000D232360F0BD17682F42FCD0C75C01332B
:100260003760EFE7004400401C4400402844004051
:1002700007B5022101A8FFF7A5FF002806D06B46AD
:1002800018795B794340FF2B00D10EBD012040421D
:10029000FBE707B56B46C0B21871C0430221587125
:1002A00001A8FFF7C7FF07BD37B50500FFF7E0FF5F
:1002B0000400431C14D00134A40021002800FFF7DF
:1002C00081FF00280CD0042101A8FFF77BFF002844
:1002D00006D02100280000F0DFF8019B984201D0F1
:1002E0000124644220003EBD37B50C00050000F03B
:1002F000D3F80190A0100138FFF7CBFF28002100B0
:10030000FFF798FF042101A8FFF794FF37BD000015
:10031000F0B5574CA544FFF7D3FEFFF727FF902217
:10032000544B52051968114205D080221204002056
:100330001A60FFF7AEFF504C504BE31A9B1201932B
:10034000FFF796FF05286CD800F00CF903071D2B6A
:10035000585B0020FFF79DFFF2E7494B1C2200216C
:1003600003A81D6800F0F6F8822202AB52001A8042
:1003700002AA202110005D802B142D1613715571D7
:10038000FFF7B2FFDCE7FFF773FF0500431C48D01F
:10039000FFF76EFF431C44D001308100A8022018F3
:1003A000EEE7FFF765FF0500431C3AD002A8FFF710
:1003B0007BFF0200431C34D0A802324B201802A954
:1003C000984743425841C5E72F4B9819FFF76CFFF8
:1003D0000500431C25D00020FFF75BFF8023761922
:1003E000DB009D4203DB0137019B9F42ECDB3200C7
:1003F00025492248254B98470120ABE700273E00BE
:10040000F2E7FFF735FF442807D0552807D03328F7
:10041000F2D1002000F052F8EEE70120FAE70220C6
:10042000F8E7637821781A4A1B020B43934287D17D
:10043000802280231201A1184A781B01E35C12027A
:100440001A438B781B041A43CB781B06134383F3A0
:100450000888104A0F4BE35CA418627812021A4312
:10046000A3781B041A43E3781B0613439847FEE75F
:10047000F4FBFFFF601002400010000800000008BD
:10048000005801400100002000100020D900002089
:10049000EA32000004080000E122064B89101A60CD
:1004A000054B013902D21868C043704704C81A606E
:1004B000F7E7C0460830024000300240194B1A4AA4
:1004C0001A601A4A1A601A4B1A4A1A601A4A1A60B3
:1004D00001231A4A5B421360012816D002281DD05E
:1004E0000133FF3316490B608021164B89021960D6
:1004F0008021490210680842FCD11168182211427B
:100500000ED1802212051A60FEE70F490F4B5B1ACD
:100510000F495B18DB12013B1B04E3E7FF23FBE7FA
:100520007047C0460820024023016745AB89EFCDE4
:100530000C2002403B2A19087F6E5D4C10200240BF
:100540002C20024014200240000000080010000887
:10055000FF07000003008218934200D17047197012
:100560000133F9E702B4714649084900095C4900C2
:100570008E4402BC7047C046FEE7704710B5164B6C
:10058000164A17498B4218D30021164A934217D3B3
:100590008023154A9B001168144C0B431360144BC5
:1005A0009C420FD3134C144B9C420ED3FFF7B0FE6A
:1005B000124C134B9C420BD310BD01CA01C3E1E79F
:1005C00002C3E3E708CC9847E9E708CC9847EAE795
:1005D00008CC9847EDE7C04600000020040600085C
:1005E000F4000020F400002014ED00E004060008F0
:1005F00004060008040600080406000804060008B3
:0406000004060008E4
:10060400F7B52D4B05002D48541E18602C4864196D
:10061400186001232B485B422B4EE40A0360E4027A
:10062400033333600194802464022F00A446274BD3
:100634000090EB18DB0ADB020198834217D9802073
:1006440001234002336084460B005C1AA2421FDC83
:1006540080231B063360009B18241E68002033008F
:100664002340264202D193421EDB0120FEBD1C68BA
:10067400174C18481C1BE40AE40004433460009837
:10068400046860460442FAD1802000011B18D3E7B5
:1006940018683860586878600098046860460442B6
:1006A400FAD108330837D0E7E858CC58A04201D132
:1006B4000433D8E70020D9E7082002402301674526
:1006C400AB89EFCD1020024014200240FF07000048
:1006D400000000080200010010B5FFF791FF002898
:1006E40003D0024B024A1A60FEE710BD0CED00E095
:0406F4000400FA05FF
:040000050800057D6D
:00000001FF
